{
  "contractName": "SourceCodeSea",
  "abi": [
    {
      "inputs": [],
      "stateMutability": "nonpayable",
      "type": "constructor"
    },
    {
      "anonymous": false,
      "inputs": [
        {
          "indexed": true,
          "internalType": "address",
          "name": "owner",
          "type": "address"
        },
        {
          "indexed": true,
          "internalType": "address",
          "name": "approved",
          "type": "address"
        },
        {
          "indexed": true,
          "internalType": "uint256",
          "name": "tokenId",
          "type": "uint256"
        }
      ],
      "name": "Approval",
      "type": "event"
    },
    {
      "anonymous": false,
      "inputs": [
        {
          "indexed": true,
          "internalType": "address",
          "name": "owner",
          "type": "address"
        },
        {
          "indexed": true,
          "internalType": "address",
          "name": "operator",
          "type": "address"
        },
        {
          "indexed": false,
          "internalType": "bool",
          "name": "approved",
          "type": "bool"
        }
      ],
      "name": "ApprovalForAll",
      "type": "event"
    },
    {
      "anonymous": false,
      "inputs": [
        {
          "indexed": true,
          "internalType": "address",
          "name": "from",
          "type": "address"
        },
        {
          "indexed": true,
          "internalType": "address",
          "name": "to",
          "type": "address"
        },
        {
          "indexed": true,
          "internalType": "uint256",
          "name": "tokenId",
          "type": "uint256"
        }
      ],
      "name": "Transfer",
      "type": "event"
    },
    {
      "anonymous": false,
      "inputs": [
        {
          "indexed": false,
          "internalType": "uint256",
          "name": "id",
          "type": "uint256"
        },
        {
          "indexed": false,
          "internalType": "address",
          "name": "buyer",
          "type": "address"
        }
      ],
      "name": "boughtCODE",
      "type": "event"
    },
    {
      "anonymous": false,
      "inputs": [
        {
          "indexed": false,
          "internalType": "uint256",
          "name": "id",
          "type": "uint256"
        },
        {
          "indexed": false,
          "internalType": "string",
          "name": "name",
          "type": "string"
        },
        {
          "indexed": false,
          "internalType": "address",
          "name": "owner",
          "type": "address"
        }
      ],
      "name": "createdCODE",
      "type": "event"
    },
    {
      "anonymous": false,
      "inputs": [
        {
          "indexed": false,
          "internalType": "uint256",
          "name": "id",
          "type": "uint256"
        },
        {
          "indexed": false,
          "internalType": "uint256",
          "name": "codeID",
          "type": "uint256"
        },
        {
          "indexed": false,
          "internalType": "uint256",
          "name": "amount",
          "type": "uint256"
        },
        {
          "indexed": false,
          "internalType": "bool",
          "name": "approved",
          "type": "bool"
        }
      ],
      "name": "offerApproved",
      "type": "event"
    },
    {
      "anonymous": false,
      "inputs": [
        {
          "indexed": false,
          "internalType": "uint256",
          "name": "id",
          "type": "uint256"
        },
        {
          "indexed": false,
          "internalType": "uint256",
          "name": "newPrice",
          "type": "uint256"
        },
        {
          "indexed": false,
          "internalType": "bool",
          "name": "listed",
          "type": "bool"
        }
      ],
      "name": "setCODEPrice",
      "type": "event"
    },
    {
      "inputs": [
        {
          "internalType": "address",
          "name": "to",
          "type": "address"
        },
        {
          "internalType": "uint256",
          "name": "tokenId",
          "type": "uint256"
        }
      ],
      "name": "approve",
      "outputs": [],
      "stateMutability": "nonpayable",
      "type": "function"
    },
    {
      "inputs": [
        {
          "internalType": "address",
          "name": "owner",
          "type": "address"
        }
      ],
      "name": "balanceOf",
      "outputs": [
        {
          "internalType": "uint256",
          "name": "",
          "type": "uint256"
        }
      ],
      "stateMutability": "view",
      "type": "function"
    },
    {
      "inputs": [
        {
          "internalType": "uint256",
          "name": "",
          "type": "uint256"
        }
      ],
      "name": "codes",
      "outputs": [
        {
          "internalType": "uint256",
          "name": "id",
          "type": "uint256"
        },
        {
          "internalType": "uint256",
          "name": "price",
          "type": "uint256"
        },
        {
          "internalType": "bool",
          "name": "isListed",
          "type": "bool"
        },
        {
          "internalType": "string",
          "name": "name",
          "type": "string"
        },
        {
          "internalType": "string",
          "name": "description",
          "type": "string"
        },
        {
          "internalType": "string",
          "name": "filecid",
          "type": "string"
        },
        {
          "internalType": "string",
          "name": "aName",
          "type": "string"
        },
        {
          "internalType": "address",
          "name": "prgmer",
          "type": "address"
        },
        {
          "internalType": "address payable",
          "name": "owner",
          "type": "address"
        }
      ],
      "stateMutability": "view",
      "type": "function"
    },
    {
      "inputs": [
        {
          "internalType": "uint256",
          "name": "tokenId",
          "type": "uint256"
        }
      ],
      "name": "getApproved",
      "outputs": [
        {
          "internalType": "address",
          "name": "",
          "type": "address"
        }
      ],
      "stateMutability": "view",
      "type": "function"
    },
    {
      "inputs": [
        {
          "internalType": "address",
          "name": "owner",
          "type": "address"
        },
        {
          "internalType": "address",
          "name": "operator",
          "type": "address"
        }
      ],
      "name": "isApprovedForAll",
      "outputs": [
        {
          "internalType": "bool",
          "name": "",
          "type": "bool"
        }
      ],
      "stateMutability": "view",
      "type": "function"
    },
    {
      "inputs": [],
      "name": "name",
      "outputs": [
        {
          "internalType": "string",
          "name": "",
          "type": "string"
        }
      ],
      "stateMutability": "view",
      "type": "function"
    },
    {
      "inputs": [
        {
          "internalType": "uint256",
          "name": "tokenId",
          "type": "uint256"
        }
      ],
      "name": "ownerOf",
      "outputs": [
        {
          "internalType": "address",
          "name": "",
          "type": "address"
        }
      ],
      "stateMutability": "view",
      "type": "function"
    },
    {
      "inputs": [],
      "name": "sCount",
      "outputs": [
        {
          "internalType": "uint256",
          "name": "",
          "type": "uint256"
        }
      ],
      "stateMutability": "view",
      "type": "function"
    },
    {
      "inputs": [
        {
          "internalType": "address",
          "name": "from",
          "type": "address"
        },
        {
          "internalType": "address",
          "name": "to",
          "type": "address"
        },
        {
          "internalType": "uint256",
          "name": "tokenId",
          "type": "uint256"
        }
      ],
      "name": "safeTransferFrom",
      "outputs": [],
      "stateMutability": "nonpayable",
      "type": "function"
    },
    {
      "inputs": [
        {
          "internalType": "address",
          "name": "from",
          "type": "address"
        },
        {
          "internalType": "address",
          "name": "to",
          "type": "address"
        },
        {
          "internalType": "uint256",
          "name": "tokenId",
          "type": "uint256"
        },
        {
          "internalType": "bytes",
          "name": "_data",
          "type": "bytes"
        }
      ],
      "name": "safeTransferFrom",
      "outputs": [],
      "stateMutability": "nonpayable",
      "type": "function"
    },
    {
      "inputs": [
        {
          "internalType": "address",
          "name": "operator",
          "type": "address"
        },
        {
          "internalType": "bool",
          "name": "approved",
          "type": "bool"
        }
      ],
      "name": "setApprovalForAll",
      "outputs": [],
      "stateMutability": "nonpayable",
      "type": "function"
    },
    {
      "inputs": [
        {
          "internalType": "bytes4",
          "name": "interfaceId",
          "type": "bytes4"
        }
      ],
      "name": "supportsInterface",
      "outputs": [
        {
          "internalType": "bool",
          "name": "",
          "type": "bool"
        }
      ],
      "stateMutability": "view",
      "type": "function"
    },
    {
      "inputs": [],
      "name": "symbol",
      "outputs": [
        {
          "internalType": "string",
          "name": "",
          "type": "string"
        }
      ],
      "stateMutability": "view",
      "type": "function"
    },
    {
      "inputs": [
        {
          "internalType": "address",
          "name": "from",
          "type": "address"
        },
        {
          "internalType": "address",
          "name": "to",
          "type": "address"
        },
        {
          "internalType": "uint256",
          "name": "tokenId",
          "type": "uint256"
        }
      ],
      "name": "transferFrom",
      "outputs": [],
      "stateMutability": "nonpayable",
      "type": "function"
    },
    {
      "inputs": [
        {
          "internalType": "uint256",
          "name": "tokenId",
          "type": "uint256"
        }
      ],
      "name": "tokenURI",
      "outputs": [
        {
          "internalType": "string",
          "name": "",
          "type": "string"
        }
      ],
      "stateMutability": "view",
      "type": "function"
    },
    {
      "inputs": [
        {
          "internalType": "string",
          "name": "_name",
          "type": "string"
        }
      ],
      "name": "registerProgrammer",
      "outputs": [],
      "stateMutability": "nonpayable",
      "type": "function"
    },
    {
      "inputs": [
        {
          "internalType": "string",
          "name": "_name",
          "type": "string"
        },
        {
          "internalType": "string",
          "name": "_desc",
          "type": "string"
        },
        {
          "internalType": "string",
          "name": "_filecid",
          "type": "string"
        },
        {
          "internalType": "uint256",
          "name": "_price",
          "type": "uint256"
        }
      ],
      "name": "createCODE",
      "outputs": [],
      "stateMutability": "nonpayable",
      "type": "function"
    },
    {
      "inputs": [
        {
          "internalType": "uint256",
          "name": "_id",
          "type": "uint256"
        }
      ],
      "name": "buyCODE",
      "outputs": [],
      "stateMutability": "payable",
      "type": "function"
    }
  ],
  "bytecode": "0x60806040523480156200001157600080fd5b506040518060400160405280601181526020017f536f75726365436f6465536561204e46540000000000000000000000000000008152506040518060400160405280600381526020017f5343530000000000000000000000000000000000000000000000000000000000815250816000908051906020019062000096929190620000b8565b508060019080519060200190620000af929190620000b8565b505050620001cd565b828054620000c69062000168565b90600052602060002090601f016020900481019282620000ea576000855562000136565b82601f106200010557805160ff191683800117855562000136565b8280016001018555821562000136579182015b828111156200013557825182559160200191906001019062000118565b5b50905062000145919062000149565b5090565b5b80821115620001645760008160009055506001016200014a565b5090565b600060028204905060018216806200018157607f821691505b602082108114156200019857620001976200019e565b5b50919050565b7f4e487b7100000000000000000000000000000000000000000000000000000000600052602260045260246000fd5b6139c380620001dd6000396000f3fe6080604052600436106101095760003560e01c8063a22cb46511610095578063c2665c7d11610064578063c2665c7d14610377578063c87b56dd14610393578063d931bd94146103d0578063e86613a7146103fb578063e985e9c51461044057610109565b8063a22cb465146102d3578063ae64697e146102fc578063b842916714610325578063b88d4fde1461034e57610109565b806323b872dd116100dc57806323b872dd146101dc57806342842e0e146102055780636352211e1461022e57806370a082311461026b57806395d89b41146102a857610109565b806301ffc9a71461010e57806306fdde031461014b578063081812fc14610176578063095ea7b3146101b3575b600080fd5b34801561011a57600080fd5b50610135600480360381019061013091906126a1565b61047d565b6040516101429190612c77565b60405180910390f35b34801561015757600080fd5b5061016061055f565b60405161016d9190612c92565b60405180910390f35b34801561018257600080fd5b5061019d600480360381019061019891906127df565b6105f1565b6040516101aa9190612c10565b60405180910390f35b3480156101bf57600080fd5b506101da60048036038101906101d59190612665565b610676565b005b3480156101e857600080fd5b5061020360048036038101906101fe919061255f565b61078e565b005b34801561021157600080fd5b5061022c6004803603810190610227919061255f565b6107ee565b005b34801561023a57600080fd5b50610255600480360381019061025091906127df565b61080e565b6040516102629190612c10565b60405180910390f35b34801561027757600080fd5b50610292600480360381019061028d91906124fa565b6108c0565b60405161029f9190612ef4565b60405180910390f35b3480156102b457600080fd5b506102bd610978565b6040516102ca9190612c92565b60405180910390f35b3480156102df57600080fd5b506102fa60048036038101906102f59190612629565b610a0a565b005b34801561030857600080fd5b50610323600480360381019061031e9190612734565b610a20565b005b34801561033157600080fd5b5061034c600480360381019061034791906126f3565b610da2565b005b34801561035a57600080fd5b50610375600480360381019061037091906125ae565b610df9565b005b610391600480360381019061038c91906127df565b610e5b565b005b34801561039f57600080fd5b506103ba60048036038101906103b591906127df565b6110f6565b6040516103c79190612c92565b60405180910390f35b3480156103dc57600080fd5b506103e5611108565b6040516103f29190612ef4565b60405180910390f35b34801561040757600080fd5b50610422600480360381019061041d91906127df565b61110e565b60405161043799989796959493929190612f76565b60405180910390f35b34801561044c57600080fd5b5061046760048036038101906104629190612523565b6113c9565b6040516104749190612c77565b60405180910390f35b60007f80ac58cd000000000000000000000000000000000000000000000000000000007bffffffffffffffffffffffffffffffffffffffffffffffffffffffff1916827bffffffffffffffffffffffffffffffffffffffffffffffffffffffff1916148061054857507f5b5e139f000000000000000000000000000000000000000000000000000000007bffffffffffffffffffffffffffffffffffffffffffffffffffffffff1916827bffffffffffffffffffffffffffffffffffffffffffffffffffffffff1916145b8061055857506105578261145d565b5b9050919050565b60606000805461056e906132b7565b80601f016020809104026020016040519081016040528092919081815260200182805461059a906132b7565b80156105e75780601f106105bc576101008083540402835291602001916105e7565b820191906000526020600020905b8154815290600101906020018083116105ca57829003601f168201915b5050505050905090565b60006105fc826114c7565b61063b576040517f08c379a000000000000000000000000000000000000000000000000000000000815260040161063290612e34565b60405180910390fd5b6004600083815260200190815260200160002060009054906101000a900473ffffffffffffffffffffffffffffffffffffffff169050919050565b60006106818261080e565b90508073ffffffffffffffffffffffffffffffffffffffff168373ffffffffffffffffffffffffffffffffffffffff1614156106f2576040517f08c379a00000000000000000000000000000000000000000000000000000000081526004016106e990612e94565b60405180910390fd5b8073ffffffffffffffffffffffffffffffffffffffff16610711611533565b73ffffffffffffffffffffffffffffffffffffffff161480610740575061073f8161073a611533565b6113c9565b5b61077f576040517f08c379a000000000000000000000000000000000000000000000000000000000815260040161077690612d74565b60405180910390fd5b610789838361153b565b505050565b61079f610799611533565b826115f4565b6107de576040517f08c379a00000000000000000000000000000000000000000000000000000000081526004016107d590612ed4565b60405180910390fd5b6107e98383836116d2565b505050565b61080983838360405180602001604052806000815250610df9565b505050565b6000806002600084815260200190815260200160002060009054906101000a900473ffffffffffffffffffffffffffffffffffffffff169050600073ffffffffffffffffffffffffffffffffffffffff168173ffffffffffffffffffffffffffffffffffffffff1614156108b7576040517f08c379a00000000000000000000000000000000000000000000000000000000081526004016108ae90612db4565b60405180910390fd5b80915050919050565b60008073ffffffffffffffffffffffffffffffffffffffff168273ffffffffffffffffffffffffffffffffffffffff161415610931576040517f08c379a000000000000000000000000000000000000000000000000000000000815260040161092890612d94565b60405180910390fd5b600360008373ffffffffffffffffffffffffffffffffffffffff1673ffffffffffffffffffffffffffffffffffffffff168152602001908152602001600020549050919050565b606060018054610987906132b7565b80601f01602080910402602001604051908101604052809291908181526020018280546109b3906132b7565b8015610a005780601f106109d557610100808354040283529160200191610a00565b820191906000526020600020905b8154815290600101906020018083116109e357829003601f168201915b5050505050905090565b610a1c610a15611533565b838361192e565b5050565b60008451118015610a32575060008251115b610a71576040517f08c379a0000000000000000000000000000000000000000000000000000000008152600401610a6890612cd4565b60405180910390fd5b60096000815480929190610a849061331a565b91905055506040518061012001604052806009548152602001828152602001600115158152602001858152602001848152602001838152602001600860003373ffffffffffffffffffffffffffffffffffffffff1673ffffffffffffffffffffffffffffffffffffffff1681526020019081526020016000208054610b08906132b7565b80601f0160208091040260200160405190810160405280929190818152602001828054610b34906132b7565b8015610b815780601f10610b5657610100808354040283529160200191610b81565b820191906000526020600020905b815481529060010190602001808311610b6457829003601f168201915b505050505081526020013373ffffffffffffffffffffffffffffffffffffffff1681526020013373ffffffffffffffffffffffffffffffffffffffff16815250600a60006009548152602001908152602001600020600082015181600001556020820151816001015560408201518160020160006101000a81548160ff0219169083151502179055506060820151816003019080519060200190610c2692919061231e565b506080820151816004019080519060200190610c4392919061231e565b5060a0820151816005019080519060200190610c6092919061231e565b5060c0820151816006019080519060200190610c7d92919061231e565b5060e08201518160070160006101000a81548173ffffffffffffffffffffffffffffffffffffffff021916908373ffffffffffffffffffffffffffffffffffffffff1602179055506101008201518160080160006101000a81548173ffffffffffffffffffffffffffffffffffffffff021916908373ffffffffffffffffffffffffffffffffffffffff1602179055509050507f90c044e922576104bbc1e838f23c6c6f559556b1e786907d72cd27420f055539600954600a60006009548152602001908152602001600020600301600a6000600954815260200190815260200160002060080160009054906101000a900473ffffffffffffffffffffffffffffffffffffffff16604051610d9493929190612f38565b60405180910390a150505050565b80600860003373ffffffffffffffffffffffffffffffffffffffff1673ffffffffffffffffffffffffffffffffffffffff1681526020019081526020016000209080519060200190610df592919061231e565b5050565b610e0a610e04611533565b836115f4565b610e49576040517f08c379a0000000000000000000000000000000000000000000000000000000008152600401610e4090612ed4565b60405180910390fd5b610e5584848484611a9b565b50505050565b80600081118015610e6e57506009548111155b610e7757600080fd5b600a600083815260200190815260200160002060010154341015610ed0576040517f08c379a0000000000000000000000000000000000000000000000000000000008152600401610ec790612eb4565b60405180910390fd5b600a600083815260200190815260200160002060080160009054906101000a900473ffffffffffffffffffffffffffffffffffffffff1673ffffffffffffffffffffffffffffffffffffffff166108fc349081150290604051600060405180830381858888f19350505050158015610f4c573d6000803e3d6000fd5b50610f573383611af7565b610fff82600a60008581526020019081526020016000206005018054610f7c906132b7565b80601f0160208091040260200160405190810160405280929190818152602001828054610fa8906132b7565b8015610ff55780601f10610fca57610100808354040283529160200191610ff5565b820191906000526020600020905b815481529060010190602001808311610fd857829003601f168201915b5050505050611b15565b33600a600084815260200190815260200160002060080160006101000a81548173ffffffffffffffffffffffffffffffffffffffff021916908373ffffffffffffffffffffffffffffffffffffffff1602179055506000600a600084815260200190815260200160002060020160006101000a81548160ff0219169083151502179055507fb69cc754f954be094b8f3445b4b454a01048651b1383275fe314aee12fb5950582600a600085815260200190815260200160002060080160009054906101000a900473ffffffffffffffffffffffffffffffffffffffff166040516110ea929190612f0f565b60405180910390a15050565b606061110182611b89565b9050919050565b60095481565b600a6020528060005260406000206000915090508060000154908060010154908060020160009054906101000a900460ff1690806003018054611150906132b7565b80601f016020809104026020016040519081016040528092919081815260200182805461117c906132b7565b80156111c95780601f1061119e576101008083540402835291602001916111c9565b820191906000526020600020905b8154815290600101906020018083116111ac57829003601f168201915b5050505050908060040180546111de906132b7565b80601f016020809104026020016040519081016040528092919081815260200182805461120a906132b7565b80156112575780601f1061122c57610100808354040283529160200191611257565b820191906000526020600020905b81548152906001019060200180831161123a57829003601f168201915b50505050509080600501805461126c906132b7565b80601f0160208091040260200160405190810160405280929190818152602001828054611298906132b7565b80156112e55780601f106112ba576101008083540402835291602001916112e5565b820191906000526020600020905b8154815290600101906020018083116112c857829003601f168201915b5050505050908060060180546112fa906132b7565b80601f0160208091040260200160405190810160405280929190818152602001828054611326906132b7565b80156113735780601f1061134857610100808354040283529160200191611373565b820191906000526020600020905b81548152906001019060200180831161135657829003601f168201915b5050505050908060070160009054906101000a900473ffffffffffffffffffffffffffffffffffffffff16908060080160009054906101000a900473ffffffffffffffffffffffffffffffffffffffff16905089565b6000600560008473ffffffffffffffffffffffffffffffffffffffff1673ffffffffffffffffffffffffffffffffffffffff16815260200190815260200160002060008373ffffffffffffffffffffffffffffffffffffffff1673ffffffffffffffffffffffffffffffffffffffff16815260200190815260200160002060009054906101000a900460ff16905092915050565b60007f01ffc9a7000000000000000000000000000000000000000000000000000000007bffffffffffffffffffffffffffffffffffffffffffffffffffffffff1916827bffffffffffffffffffffffffffffffffffffffffffffffffffffffff1916149050919050565b60008073ffffffffffffffffffffffffffffffffffffffff166002600084815260200190815260200160002060009054906101000a900473ffffffffffffffffffffffffffffffffffffffff1673ffffffffffffffffffffffffffffffffffffffff1614159050919050565b600033905090565b816004600083815260200190815260200160002060006101000a81548173ffffffffffffffffffffffffffffffffffffffff021916908373ffffffffffffffffffffffffffffffffffffffff160217905550808273ffffffffffffffffffffffffffffffffffffffff166115ae8361080e565b73ffffffffffffffffffffffffffffffffffffffff167f8c5be1e5ebec7d5bd14f71427d1e84f3dd0314c0f7b2291e5b200ac8c7c3b92560405160405180910390a45050565b60006115ff826114c7565b61163e576040517f08c379a000000000000000000000000000000000000000000000000000000000815260040161163590612d54565b60405180910390fd5b60006116498361080e565b90508073ffffffffffffffffffffffffffffffffffffffff168473ffffffffffffffffffffffffffffffffffffffff1614806116b857508373ffffffffffffffffffffffffffffffffffffffff166116a0846105f1565b73ffffffffffffffffffffffffffffffffffffffff16145b806116c957506116c881856113c9565b5b91505092915050565b8273ffffffffffffffffffffffffffffffffffffffff166116f28261080e565b73ffffffffffffffffffffffffffffffffffffffff1614611748576040517f08c379a000000000000000000000000000000000000000000000000000000000815260040161173f90612e54565b60405180910390fd5b600073ffffffffffffffffffffffffffffffffffffffff168273ffffffffffffffffffffffffffffffffffffffff1614156117b8576040517f08c379a00000000000000000000000000000000000000000000000000000000081526004016117af90612d14565b60405180910390fd5b6117c3838383611cdb565b6117ce60008261153b565b6001600360008573ffffffffffffffffffffffffffffffffffffffff1673ffffffffffffffffffffffffffffffffffffffff168152602001908152602001600020600082825461181e9190613185565b925050819055506001600360008473ffffffffffffffffffffffffffffffffffffffff1673ffffffffffffffffffffffffffffffffffffffff168152602001908152602001600020600082825461187591906130fe565b92505081905550816002600083815260200190815260200160002060006101000a81548173ffffffffffffffffffffffffffffffffffffffff021916908373ffffffffffffffffffffffffffffffffffffffff160217905550808273ffffffffffffffffffffffffffffffffffffffff168473ffffffffffffffffffffffffffffffffffffffff167fddf252ad1be2c89b69c2b068fc378daa952ba7f163c4a11628f55a4df523b3ef60405160405180910390a4505050565b8173ffffffffffffffffffffffffffffffffffffffff168373ffffffffffffffffffffffffffffffffffffffff16141561199d576040517f08c379a000000000000000000000000000000000000000000000000000000000815260040161199490612d34565b60405180910390fd5b80600560008573ffffffffffffffffffffffffffffffffffffffff1673ffffffffffffffffffffffffffffffffffffffff16815260200190815260200160002060008473ffffffffffffffffffffffffffffffffffffffff1673ffffffffffffffffffffffffffffffffffffffff16815260200190815260200160002060006101000a81548160ff0219169083151502179055508173ffffffffffffffffffffffffffffffffffffffff168373ffffffffffffffffffffffffffffffffffffffff167f17307eab39ab6107e8899845ad3d59bd9653f200f220920489ca2b5937696c3183604051611a8e9190612c77565b60405180910390a3505050565b611aa68484846116d2565b611ab284848484611ce0565b611af1576040517f08c379a0000000000000000000000000000000000000000000000000000000008152600401611ae890612cb4565b60405180910390fd5b50505050565b611b11828260405180602001604052806000815250611e77565b5050565b611b1e826114c7565b611b5d576040517f08c379a0000000000000000000000000000000000000000000000000000000008152600401611b5490612dd4565b60405180910390fd5b80600660008481526020019081526020016000209080519060200190611b8492919061231e565b505050565b6060611b94826114c7565b611bd3576040517f08c379a0000000000000000000000000000000000000000000000000000000008152600401611bca90612e14565b60405180910390fd5b6000600660008481526020019081526020016000208054611bf3906132b7565b80601f0160208091040260200160405190810160405280929190818152602001828054611c1f906132b7565b8015611c6c5780601f10611c4157610100808354040283529160200191611c6c565b820191906000526020600020905b815481529060010190602001808311611c4f57829003601f168201915b505050505090506000611c7d611ed2565b9050600081511415611c93578192505050611cd6565b600082511115611cc8578082604051602001611cb0929190612bec565b60405160208183030381529060405292505050611cd6565b611cd184611ee9565b925050505b919050565b505050565b6000611d018473ffffffffffffffffffffffffffffffffffffffff16611f90565b15611e6a578373ffffffffffffffffffffffffffffffffffffffff1663150b7a02611d2a611533565b8786866040518563ffffffff1660e01b8152600401611d4c9493929190612c2b565b602060405180830381600087803b158015611d6657600080fd5b505af1925050508015611d9757506040513d601f19601f82011682018060405250810190611d9491906126ca565b60015b611e1a573d8060008114611dc7576040519150601f19603f3d011682016040523d82523d6000602084013e611dcc565b606091505b50600081511415611e12576040517f08c379a0000000000000000000000000000000000000000000000000000000008152600401611e0990612cb4565b60405180910390fd5b805181602001fd5b63150b7a0260e01b7bffffffffffffffffffffffffffffffffffffffffffffffffffffffff1916817bffffffffffffffffffffffffffffffffffffffffffffffffffffffff191614915050611e6f565b600190505b949350505050565b611e818383611fa3565b611e8e6000848484611ce0565b611ecd576040517f08c379a0000000000000000000000000000000000000000000000000000000008152600401611ec490612cb4565b60405180910390fd5b505050565b606060405180602001604052806000815250905090565b6060611ef4826114c7565b611f33576040517f08c379a0000000000000000000000000000000000000000000000000000000008152600401611f2a90612e74565b60405180910390fd5b6000611f3d611ed2565b90506000815111611f5d5760405180602001604052806000815250611f88565b80611f6784612171565b604051602001611f78929190612bec565b6040516020818303038152906040525b915050919050565b600080823b905060008111915050919050565b600073ffffffffffffffffffffffffffffffffffffffff168273ffffffffffffffffffffffffffffffffffffffff161415612013576040517f08c379a000000000000000000000000000000000000000000000000000000000815260040161200a90612df4565b60405180910390fd5b61201c816114c7565b1561205c576040517f08c379a000000000000000000000000000000000000000000000000000000000815260040161205390612cf4565b60405180910390fd5b61206860008383611cdb565b6001600360008473ffffffffffffffffffffffffffffffffffffffff1673ffffffffffffffffffffffffffffffffffffffff16815260200190815260200160002060008282546120b891906130fe565b92505081905550816002600083815260200190815260200160002060006101000a81548173ffffffffffffffffffffffffffffffffffffffff021916908373ffffffffffffffffffffffffffffffffffffffff160217905550808273ffffffffffffffffffffffffffffffffffffffff16600073ffffffffffffffffffffffffffffffffffffffff167fddf252ad1be2c89b69c2b068fc378daa952ba7f163c4a11628f55a4df523b3ef60405160405180910390a45050565b606060008214156121b9576040518060400160405280600181526020017f30000000000000000000000000000000000000000000000000000000000000008152509050612319565b600082905060005b600082146121eb5780806121d49061331a565b915050600a826121e49190613154565b91506121c1565b60008167ffffffffffffffff81111561222d577f4e487b7100000000000000000000000000000000000000000000000000000000600052604160045260246000fd5b6040519080825280601f01601f19166020018201604052801561225f5781602001600182028036833780820191505090505b5090505b60008514612312576001826122789190613185565b9150600a856122879190613363565b603061229391906130fe565b60f81b8183815181106122cf577f4e487b7100000000000000000000000000000000000000000000000000000000600052603260045260246000fd5b60200101907effffffffffffffffffffffffffffffffffffffffffffffffffffffffffffff1916908160001a905350600a8561230b9190613154565b9450612263565b8093505050505b919050565b82805461232a906132b7565b90600052602060002090601f01602090048101928261234c5760008555612393565b82601f1061236557805160ff1916838001178555612393565b82800160010185558215612393579182015b82811115612392578251825591602001919060010190612377565b5b5090506123a091906123a4565b5090565b5b808211156123bd5760008160009055506001016123a5565b5090565b60006123d46123cf84613044565b61301f565b9050828152602081018484840111156123ec57600080fd5b6123f7848285613275565b509392505050565b600061241261240d84613075565b61301f565b90508281526020810184848401111561242a57600080fd5b612435848285613275565b509392505050565b60008135905061244c81613931565b92915050565b60008135905061246181613948565b92915050565b6000813590506124768161395f565b92915050565b60008151905061248b8161395f565b92915050565b600082601f8301126124a257600080fd5b81356124b28482602086016123c1565b91505092915050565b600082601f8301126124cc57600080fd5b81356124dc8482602086016123ff565b91505092915050565b6000813590506124f481613976565b92915050565b60006020828403121561250c57600080fd5b600061251a8482850161243d565b91505092915050565b6000806040838503121561253657600080fd5b60006125448582860161243d565b92505060206125558582860161243d565b9150509250929050565b60008060006060848603121561257457600080fd5b60006125828682870161243d565b93505060206125938682870161243d565b92505060406125a4868287016124e5565b9150509250925092565b600080600080608085870312156125c457600080fd5b60006125d28782880161243d565b94505060206125e38782880161243d565b93505060406125f4878288016124e5565b925050606085013567ffffffffffffffff81111561261157600080fd5b61261d87828801612491565b91505092959194509250565b6000806040838503121561263c57600080fd5b600061264a8582860161243d565b925050602061265b85828601612452565b9150509250929050565b6000806040838503121561267857600080fd5b60006126868582860161243d565b9250506020612697858286016124e5565b9150509250929050565b6000602082840312156126b357600080fd5b60006126c184828501612467565b91505092915050565b6000602082840312156126dc57600080fd5b60006126ea8482850161247c565b91505092915050565b60006020828403121561270557600080fd5b600082013567ffffffffffffffff81111561271f57600080fd5b61272b848285016124bb565b91505092915050565b6000806000806080858703121561274a57600080fd5b600085013567ffffffffffffffff81111561276457600080fd5b612770878288016124bb565b945050602085013567ffffffffffffffff81111561278d57600080fd5b612799878288016124bb565b935050604085013567ffffffffffffffff8111156127b657600080fd5b6127c2878288016124bb565b92505060606127d3878288016124e5565b91505092959194509250565b6000602082840312156127f157600080fd5b60006127ff848285016124e5565b91505092915050565b6128118161323f565b82525050565b612820816131cb565b82525050565b61282f816131b9565b82525050565b61283e816131dd565b82525050565b600061284f826130bb565b61285981856130d1565b9350612869818560208601613284565b61287281613450565b840191505092915050565b6000612888826130c6565b61289281856130e2565b93506128a2818560208601613284565b6128ab81613450565b840191505092915050565b60006128c1826130c6565b6128cb81856130f3565b93506128db818560208601613284565b80840191505092915050565b600081546128f4816132b7565b6128fe81866130e2565b94506001821660008114612919576001811461292b5761295e565b60ff198316865260208601935061295e565b612934856130a6565b60005b8381101561295657815481890152600182019150602081019050612937565b808801955050505b50505092915050565b60006129746032836130e2565b915061297f82613461565b604082019050919050565b60006129976016836130e2565b91506129a2826134b0565b602082019050919050565b60006129ba601c836130e2565b91506129c5826134d9565b602082019050919050565b60006129dd6024836130e2565b91506129e882613502565b604082019050919050565b6000612a006019836130e2565b9150612a0b82613551565b602082019050919050565b6000612a23602c836130e2565b9150612a2e8261357a565b604082019050919050565b6000612a466038836130e2565b9150612a51826135c9565b604082019050919050565b6000612a69602a836130e2565b9150612a7482613618565b604082019050919050565b6000612a8c6029836130e2565b9150612a9782613667565b604082019050919050565b6000612aaf602e836130e2565b9150612aba826136b6565b604082019050919050565b6000612ad26020836130e2565b9150612add82613705565b602082019050919050565b6000612af56031836130e2565b9150612b008261372e565b604082019050919050565b6000612b18602c836130e2565b9150612b238261377d565b604082019050919050565b6000612b3b6029836130e2565b9150612b46826137cc565b604082019050919050565b6000612b5e602f836130e2565b9150612b698261381b565b604082019050919050565b6000612b816021836130e2565b9150612b8c8261386a565b604082019050919050565b6000612ba46013836130e2565b9150612baf826138b9565b602082019050919050565b6000612bc76031836130e2565b9150612bd2826138e2565b604082019050919050565b612be681613235565b82525050565b6000612bf882856128b6565b9150612c0482846128b6565b91508190509392505050565b6000602082019050612c256000830184612826565b92915050565b6000608082019050612c406000830187612826565b612c4d6020830186612826565b612c5a6040830185612bdd565b8181036060830152612c6c8184612844565b905095945050505050565b6000602082019050612c8c6000830184612835565b92915050565b60006020820190508181036000830152612cac818461287d565b905092915050565b60006020820190508181036000830152612ccd81612967565b9050919050565b60006020820190508181036000830152612ced8161298a565b9050919050565b60006020820190508181036000830152612d0d816129ad565b9050919050565b60006020820190508181036000830152612d2d816129d0565b9050919050565b60006020820190508181036000830152612d4d816129f3565b9050919050565b60006020820190508181036000830152612d6d81612a16565b9050919050565b60006020820190508181036000830152612d8d81612a39565b9050919050565b60006020820190508181036000830152612dad81612a5c565b9050919050565b60006020820190508181036000830152612dcd81612a7f565b9050919050565b60006020820190508181036000830152612ded81612aa2565b9050919050565b60006020820190508181036000830152612e0d81612ac5565b9050919050565b60006020820190508181036000830152612e2d81612ae8565b9050919050565b60006020820190508181036000830152612e4d81612b0b565b9050919050565b60006020820190508181036000830152612e6d81612b2e565b9050919050565b60006020820190508181036000830152612e8d81612b51565b9050919050565b60006020820190508181036000830152612ead81612b74565b9050919050565b60006020820190508181036000830152612ecd81612b97565b9050919050565b60006020820190508181036000830152612eed81612bba565b9050919050565b6000602082019050612f096000830184612bdd565b92915050565b6000604082019050612f246000830185612bdd565b612f316020830184612808565b9392505050565b6000606082019050612f4d6000830186612bdd565b8181036020830152612f5f81856128e7565b9050612f6e6040830184612808565b949350505050565b600061012082019050612f8c600083018c612bdd565b612f99602083018b612bdd565b612fa6604083018a612835565b8181036060830152612fb8818961287d565b90508181036080830152612fcc818861287d565b905081810360a0830152612fe0818761287d565b905081810360c0830152612ff4818661287d565b905061300360e0830185612826565b613011610100830184612817565b9a9950505050505050505050565b600061302961303a565b905061303582826132e9565b919050565b6000604051905090565b600067ffffffffffffffff82111561305f5761305e613421565b5b61306882613450565b9050602081019050919050565b600067ffffffffffffffff8211156130905761308f613421565b5b61309982613450565b9050602081019050919050565b60008190508160005260206000209050919050565b600081519050919050565b600081519050919050565b600082825260208201905092915050565b600082825260208201905092915050565b600081905092915050565b600061310982613235565b915061311483613235565b9250827fffffffffffffffffffffffffffffffffffffffffffffffffffffffffffffffff0382111561314957613148613394565b5b828201905092915050565b600061315f82613235565b915061316a83613235565b92508261317a576131796133c3565b5b828204905092915050565b600061319082613235565b915061319b83613235565b9250828210156131ae576131ad613394565b5b828203905092915050565b60006131c482613215565b9050919050565b60006131d682613215565b9050919050565b60008115159050919050565b60007fffffffff0000000000000000000000000000000000000000000000000000000082169050919050565b600073ffffffffffffffffffffffffffffffffffffffff82169050919050565b6000819050919050565b600061324a82613251565b9050919050565b600061325c82613263565b9050919050565b600061326e82613215565b9050919050565b82818337600083830152505050565b60005b838110156132a2578082015181840152602081019050613287565b838111156132b1576000848401525b50505050565b600060028204905060018216806132cf57607f821691505b602082108114156132e3576132e26133f2565b5b50919050565b6132f282613450565b810181811067ffffffffffffffff8211171561331157613310613421565b5b80604052505050565b600061332582613235565b91507fffffffffffffffffffffffffffffffffffffffffffffffffffffffffffffffff82141561335857613357613394565b5b600182019050919050565b600061336e82613235565b915061337983613235565b925082613389576133886133c3565b5b828206905092915050565b7f4e487b7100000000000000000000000000000000000000000000000000000000600052601160045260246000fd5b7f4e487b7100000000000000000000000000000000000000000000000000000000600052601260045260246000fd5b7f4e487b7100000000000000000000000000000000000000000000000000000000600052602260045260246000fd5b7f4e487b7100000000000000000000000000000000000000000000000000000000600052604160045260246000fd5b6000601f19601f8301169050919050565b7f4552433732313a207472616e7366657220746f206e6f6e20455243373231526560008201527f63656976657220696d706c656d656e7465720000000000000000000000000000602082015250565b7f4e616d6520616e642066696c6520726571756972656400000000000000000000600082015250565b7f4552433732313a20746f6b656e20616c7265616479206d696e74656400000000600082015250565b7f4552433732313a207472616e7366657220746f20746865207a65726f2061646460008201527f7265737300000000000000000000000000000000000000000000000000000000602082015250565b7f4552433732313a20617070726f766520746f2063616c6c657200000000000000600082015250565b7f4552433732313a206f70657261746f7220717565727920666f72206e6f6e657860008201527f697374656e7420746f6b656e0000000000000000000000000000000000000000602082015250565b7f4552433732313a20617070726f76652063616c6c6572206973206e6f74206f7760008201527f6e6572206e6f7220617070726f76656420666f7220616c6c0000000000000000602082015250565b7f4552433732313a2062616c616e636520717565727920666f7220746865207a6560008201527f726f206164647265737300000000000000000000000000000000000000000000602082015250565b7f4552433732313a206f776e657220717565727920666f72206e6f6e657869737460008201527f656e7420746f6b656e0000000000000000000000000000000000000000000000602082015250565b7f45524337323155524953746f726167653a2055524920736574206f66206e6f6e60008201527f6578697374656e7420746f6b656e000000000000000000000000000000000000602082015250565b7f4552433732313a206d696e7420746f20746865207a65726f2061646472657373600082015250565b7f45524337323155524953746f726167653a2055524920717565727920666f722060008201527f6e6f6e6578697374656e7420746f6b656e000000000000000000000000000000602082015250565b7f4552433732313a20617070726f76656420717565727920666f72206e6f6e657860008201527f697374656e7420746f6b656e0000000000000000000000000000000000000000602082015250565b7f4552433732313a207472616e73666572206f6620746f6b656e2074686174206960008201527f73206e6f74206f776e0000000000000000000000000000000000000000000000602082015250565b7f4552433732314d657461646174613a2055524920717565727920666f72206e6f60008201527f6e6578697374656e7420746f6b656e0000000000000000000000000000000000602082015250565b7f4552433732313a20617070726f76616c20746f2063757272656e74206f776e6560008201527f7200000000000000000000000000000000000000000000000000000000000000602082015250565b7f496e73756666696369656e7420616d6f756e7400000000000000000000000000600082015250565b7f4552433732313a207472616e736665722063616c6c6572206973206e6f74206f60008201527f776e6572206e6f7220617070726f766564000000000000000000000000000000602082015250565b61393a816131b9565b811461394557600080fd5b50565b613951816131dd565b811461395c57600080fd5b50565b613968816131e9565b811461397357600080fd5b50565b61397f81613235565b811461398a57600080fd5b5056fea2646970667358221220fe407b5f46b4ceb3157f5f8e15fd2c34e3a497a5218ca775519898a13d28ac1064736f6c63430008020033",
  "immutableReferences": {},
  "source": "pragma solidity ^0.8.0;\r\n\r\n//import \"@openzeppelin/contracts/access/Ownable.sol\";\r\nimport \"@openzeppelin/contracts/token/ERC721/ERC721.sol\";\r\nimport \"@openzeppelin/contracts/token/ERC721/extensions/ERC721URIStorage.sol\";\r\n\r\ncontract SourceCodeSea is ERC721, ERC721URIStorage {\r\n\r\n    address gctAddress;\r\n\r\n    mapping(address => string) programmers;\r\n\r\n    uint public sCount;\r\n    \r\n    mapping(uint => CODE) public codes;\r\n\r\n    struct CODE {\r\n        uint id;\r\n        uint price;\r\n        bool isListed;\r\n        string name;\r\n        string description;\r\n        string filecid;\r\n        string aName;\r\n        address prgmer;\r\n        address payable owner;\r\n    }\r\n\r\n    constructor() ERC721(\"SourceCodeSea NFT\", \"SCS\") { }\r\n\r\n    modifier idExists(uint id) {\r\n        require(id > 0 && id <= sCount);\r\n        _;\r\n    }\r\n\r\n    event createdCODE(\r\n        uint id,\r\n        string name,\r\n        address owner\r\n    );\r\n\r\n    event setCODEPrice(\r\n        uint id,\r\n        uint newPrice,\r\n        bool listed\r\n    );\r\n\r\n    event offerApproved(\r\n        uint id,\r\n        uint codeID,\r\n        uint amount,\r\n        bool approved\r\n    );\r\n\r\n    event boughtCODE(\r\n        uint id,\r\n        address buyer\r\n    );\r\n\r\n    function _burn(uint256 tokenId) internal override(ERC721, ERC721URIStorage) {\r\n      super._burn(tokenId);\r\n    }\r\n\r\n    function tokenURI(uint256 tokenId)\r\n        public\r\n        view\r\n        override(ERC721, ERC721URIStorage)\r\n        returns (string memory)\r\n        {\r\n            return super.tokenURI(tokenId);\r\n        }\r\n\r\n    function registerProgrammer(string memory _name) external {\r\n        programmers[msg.sender] = _name;\r\n    }\r\n\r\n    function createCODE(string memory _name,string memory _desc, string memory _filecid, uint256 _price) external {\r\n        require(bytes(_name).length > 0 && bytes(_filecid).length > 0, \"Name and file required\");\r\n        sCount++;\r\n        codes[sCount] = CODE(sCount, _price, true, _name, _desc, _filecid, programmers[msg.sender], msg.sender, payable(msg.sender));\r\n        emit createdCODE(sCount, codes[sCount].name, codes[sCount].owner);\r\n    }\r\n\r\n    function buyCODE(uint256 _id) external payable idExists(_id) {\r\n        require(msg.value >= codes[_id].price, \"Insufficient amount\");\r\n        codes[_id].owner.transfer(msg.value);\r\n        _safeMint(msg.sender, _id);\r\n        _setTokenURI(_id, codes[_id].filecid);\r\n        codes[_id].owner = payable(msg.sender);\r\n        codes[_id].isListed = false;\r\n        emit boughtCODE(_id, codes[_id].owner);\r\n    }\r\n} ",
  "sourcePath": "C:/Users/Abel Simon Zachariah/Projects/Source-Code-Sea/contracts/SourceCodeSea.sol",
  "compiler": {
    "name": "solc",
    "version": "0.8.2+commit.661d1103.Emscripten.clang"
  },
  "schemaVersion": "3.3.4",
  "updatedAt": "2021-12-05T05:02:37.122Z",
  "devdoc": {
    "kind": "dev",
    "methods": {
      "approve(address,uint256)": {
        "details": "See {IERC721-approve}."
      },
      "balanceOf(address)": {
        "details": "See {IERC721-balanceOf}."
      },
      "getApproved(uint256)": {
        "details": "See {IERC721-getApproved}."
      },
      "isApprovedForAll(address,address)": {
        "details": "See {IERC721-isApprovedForAll}."
      },
      "name()": {
        "details": "See {IERC721Metadata-name}."
      },
      "ownerOf(uint256)": {
        "details": "See {IERC721-ownerOf}."
      },
      "safeTransferFrom(address,address,uint256)": {
        "details": "See {IERC721-safeTransferFrom}."
      },
      "safeTransferFrom(address,address,uint256,bytes)": {
        "details": "See {IERC721-safeTransferFrom}."
      },
      "setApprovalForAll(address,bool)": {
        "details": "See {IERC721-setApprovalForAll}."
      },
      "supportsInterface(bytes4)": {
        "details": "See {IERC165-supportsInterface}."
      },
      "symbol()": {
        "details": "See {IERC721Metadata-symbol}."
      },
      "transferFrom(address,address,uint256)": {
        "details": "See {IERC721-transferFrom}."
      }
    },
    "version": 1
  },
  "userdoc": {
    "kind": "user",
    "methods": {},
    "version": 1
  }
}